:100000001DC037C036C0D1C234C085C232C031C075
:1000100030C02FC02EC02DC02CC02BC02AC0010361
:10002000000004000000000038000000000037005D
:1000300002020202020201020408102011241FBE63
:10004000CFE5D2E0DEBFCDBF10E0A0E6B0E0E0EA51
:10005000F8E002C005900D92AE39B107D9F720E063
:10006000AEE9B0E001C01D92A93CB207E1F703D3AD
:1000700015C4C6CF83E087B987B187B9369A369958
:10008000FECF84B195B108953FB7F8948091BA003E
:100090009091BB00A091BC00B091BD0022B708B602
:1000A00001FE05C02F3F19F00196A11DB11D3FBFF4
:1000B000BA2FA92F982F8827BC01CD01620F711D7F
:1000C000811D911D43E0660F771F881F991F4A9578
:1000D000D1F70895CF92DF92EF92FF92CF93DF9303
:1000E0006B017C01D1DFEB01CFDF6C1B7D0B683E28
:1000F0007340A0F0C114D104E104F10439F4DF919C
:10010000CF91FF90EF90DF90CF90089581E0C81AD3
:10011000D108E108F108C851DC4FE6CFC114D10481
:10012000E104F10409F7EBCF2FB7F8946091B60022
:100130007091B7008091B8009091B9002FBF0895D9
:10014000909160009F3F49F1981711F08F3F29F57A
:1001500089B78B7989BF10BE8CB581788CBD1FBCE7
:100160001EBC1BBC1DBC89B78B7989BF84E688BFC8
:1001700080E48CBD8FEF8DBD87EC80BFE091C30024
:10018000F091C400309731F08091C2009081809549
:10019000892380838FEF8093600008952F923F9290
:1001A0004F925F926F927F928F929F92AF92BF9287
:1001B000CF92DF92EF92FF920F931F93CF93DF9333
:1001C00059DF092E000CAA0BBB0B4091A7005091E0
:1001D000A8006091A9007091AA00483C51056105F2
:1001E0007105C4F1485C5109610971094817590743
:1001F0006A077B070CF470C0C091A600C1112EC025
:1002000081E08093A60090DF8B019C0160939E00AB
:1002100010939F008093A0003093A1001092A20041
:100220001092A3001092A4001092A5008C2FDF91D1
:10023000CF911F910F91FF90EF90DF90CF90BF90E3
:10024000AF909F908F907F906F905F904F903F9076
:100250002F90089540E050E0BA01C8CF20919E0051
:1002600030919F004091A0005091A1006091A200A8
:100270007091A3008091A4009091A50028513C4F5B
:100280004F4F5F4F6F4F7F4F8F4F9F4FB22EC32EF9
:10029000D42EE52EF62E072F182FD92F45DF1B0160
:1002A0002C012B2D3C2D4D2D5E2D6F2D702F812F70
:1002B0009D2F51016201E12CF12C00E010E0E5D20C
:1002C00068F41092A60010929E0010929F00109267
:1002D000A0001092A100A2CF1092A600C0E0A6CF6D
:1002E000C9DE092E000CAA0BBB0B8093A7009093CC
:1002F000A800A093A900B093AA0010929E001092AB
:100300009F001092A0001092A1001092A2001092E3
:10031000A3001092A4001092A5001092A6001092C3
:10032000AB001092AC001092AD001092AE00109293
:10033000AF001092B0001092B1001092B200089578
:1003400090E0FC01EA5CFF4F2491805D9F4FFC012F
:100350008491882399F090E0880F991FFC01E65D55
:10036000FF4FA591B491FC01EC5DFF4F85919491F5
:100370008FB7F894EC91E22BEC938FBF089590E047
:10038000FC01E25EFF4F3491FC01EA5CFF4F2491D7
:10039000FC01E05DFF4FE491EE23B9F0332329F037
:1003A0003130A1F48AB58F778ABDF0E0EE0FFF1FE0
:1003B000EC5DFF4FA591B4918FB7611118C0F8940F
:1003C000EC9120952E232C938FBF0895323019F491
:1003D0008AB58F7DE9CF333021F480B78F7D80BF20
:1003E000E4CF343011F78CB58F7D8CBDDECFF8941F
:1003F000EC912E2BE8CFCF92DF92EF92FF92CF932A
:1004000040916000413071F4C090C500D090C600AA
:10041000E090C700F090C800C616D706E806F906B7
:1004200009F465C06B017C01C092C500D092C60082
:10043000E092C700F092C8004F3F09F510BE8CB59E
:1004400081788CBD1FBC1EBC1BBC1DBC89B78B79C1
:1004500089BF88B7846688BF80E880BF1092C400D7
:100460001092C3001092C20080B78F7D80BF80B70A
:10047000806180BF81E064DF81E080936000C09193
:100480006000C130A1F580B7807F80BF1FBCC11460
:10049000D104E104F10489F160E079E08DE390E0BA
:1004A000A7019601D0D12F3F31054105510549F0F3
:1004B00040F0CF3031F0CF5F56954795379527956F
:1004C000F2CF8FEF820F8DBD2150310941095109C3
:1004D0002EBD8FEF9FEFDC018093BE009093BF0095
:1004E000A093C000B093C10080B7C82BC0BFCF910C
:1004F000FF90EF90DF90CF90089589B7806489BF17
:1005000089B78B7989BF60E081E0CF91FF90EF9050
:10051000DF90CF9034CF1F920F920FB60F9211241D
:100520002F933F938F939F93AF93BF938091B60088
:100530009091B700A091B800B091B9003091B5008A
:1005400026E0230F2D3768F129E8230F0396A11D1C
:10055000B11D2093B5008093B6009093B700A0938F
:10056000B800B093B9008091BA009091BB00A091FF
:10057000BC00B091BD000196A11DB11D8093BA00D1
:100580009093BB00A093BC00B093BD00BF91AF910E
:100590009F918F913F912F910F900FBE0F901F90C1
:1005A00018950296A11DB11DD4CF1F920F920FB6C0
:1005B0000F9211242F933F934F935F936F937F93E9
:1005C0008F939F93AF93BF93EF93FF938091BE0060
:1005D0009091BF00A091C000B091C100892B8A2BDF
:1005E0008B2B61F18091BE009091BF00A091C00063
:1005F000B091C100181619061A061B0694F58091D1
:10060000BE009091BF00A091C000B091C1000197C1
:10061000A109B1098093BE009093BF00A093C000D0
:10062000B093C1008091BE009091BF00A091C00026
:10063000B091C100892B8A2B8B2B99F48FEF80DD31
:10064000FF91EF91BF91AF919F918F917F916F91AA
:100650005F914F913F912F910F900FBE0F901F9080
:1006600018959091C200E091C300F091C400808180
:1006700089278083E5CFCF93DF93CDB7DEB7EC97A3
:100680000FB6F894DEBF0FBECDBF83E08ABD83BF37
:10069000789489B7826089BF80E48CBD8FEF8DBD6F
:1006A00087EC80BF86E886B980E04ADE8CE3E1E62D
:1006B000F0E0DE01119601900D928A95E1F78E012E
:1006C0000F5F1F4F7E018DE3E80EF11CF801619171
:1006D00071918F016115710539F581E031DD68ECAB
:1006E00070E080E090E0F6DC0E151F0579F761E020
:1006F00080E045DE64E670E080E090E0EBDCF0DD79
:1007000060E080E03CDE8091B3009091B4008130E5
:10071000910569F178F0029709F46DC060E080E01E
:100720002EDE81E00DDDEFCF7695679590E080E0DD
:1007300062DED5CF33DD882331F3F6DC8B019C01FB
:100740006093AB001093AC008093AD003093AE008B
:100750001092AF001092B0001092B1001092B2004F
:1007600081E090E09093B4008093B300CCCFDCDCC8
:1007700066277C708827992721E0672B682B692BD7
:1007800009F020E0622F80E0FADD2091AB0030918B
:10079000AC004091AD005091AE006091AF007091FF
:1007A000B0008091B1009091B200205C3848444E76
:1007B0005F4F6F4F7F4F8F4F9F4F59016A017B01F2
:1007C0008C01B2DC1B012C019501A601B701C80107
:1007D00051016201E12CF12C00E010E056D008F04C
:1007E00092CF60E080E0CBDDE2E0F0E0F093B40097
:1007F000E093B30088CF98DC617080E0C0DD94DCCA
:1008000066277C7088279927672B682B692BC1F096
:100810008BDC73708827992768517C4F8F4F9F4FCF
:10082000EADDBCDC882309F46ECF81E089DC60E07E
:1008300080E0A5DD1092B4001092B30051DD63CFCB
:1008400081E07EDCEECFA1E21A2EAA1BBB1BFD01CC
:100850000DC0AA1FBB1FEE1FFF1FA217B307E4079F
:10086000F50720F0A21BB30BE40BF50B661F771FF7
:10087000881F991F1A9469F76095709580959095D7
:100880009B01AC01BD01CF0108952A153B054C0524
:100890005D056E057F05800791070895F894FFCFE9
:1008A000FF2D0800002D0800002D08000020060084
:1008B00000E0060000E00600002006200600000020
:1008C000002705000027050000970400009704009A
:0E08D000006400640064006400640000000026
:00000001FF
